{
	"data": {
		"bytecode": {
			"linkReferences": {},
			"object": "608060405234801561001057600080fd5b5061013a806100206000396000f300608060405260043610610057576000357c0100000000000000000000000000000000000000000000000000000000900463ffffffff168063548769211461005c578063ae18c52b14610089578063eff8a409146100b6575b600080fd5b34801561006857600080fd5b50610087600480360381019080803590602001909291905050506100e1565b005b34801561009557600080fd5b506100b4600480360381019080803590602001909291905050506100f3565b005b3480156100c257600080fd5b506100cb610105565b6040518082815260200191505060405180910390f35b80600080828254039250508190555050565b80600080828254019250508190555050565b600080549050905600a165627a7a7230582017b5431f79eca12949a812e2abff5c1405c42cf0798d461b6d67b19c834a7b4d0029",
			"opcodes": "PUSH1 0x80 PUSH1 0x40 MSTORE CALLVALUE DUP1 ISZERO PUSH2 0x10 JUMPI PUSH1 0x0 DUP1 REVERT JUMPDEST POP PUSH2 0x13A DUP1 PUSH2 0x20 PUSH1 0x0 CODECOPY PUSH1 0x0 RETURN STOP PUSH1 0x80 PUSH1 0x40 MSTORE PUSH1 0x4 CALLDATASIZE LT PUSH2 0x57 JUMPI PUSH1 0x0 CALLDATALOAD PUSH29 0x100000000000000000000000000000000000000000000000000000000 SWAP1 DIV PUSH4 0xFFFFFFFF AND DUP1 PUSH4 0x54876921 EQ PUSH2 0x5C JUMPI DUP1 PUSH4 0xAE18C52B EQ PUSH2 0x89 JUMPI DUP1 PUSH4 0xEFF8A409 EQ PUSH2 0xB6 JUMPI JUMPDEST PUSH1 0x0 DUP1 REVERT JUMPDEST CALLVALUE DUP1 ISZERO PUSH2 0x68 JUMPI PUSH1 0x0 DUP1 REVERT JUMPDEST POP PUSH2 0x87 PUSH1 0x4 DUP1 CALLDATASIZE SUB DUP2 ADD SWAP1 DUP1 DUP1 CALLDATALOAD SWAP1 PUSH1 0x20 ADD SWAP1 SWAP3 SWAP2 SWAP1 POP POP POP PUSH2 0xE1 JUMP JUMPDEST STOP JUMPDEST CALLVALUE DUP1 ISZERO PUSH2 0x95 JUMPI PUSH1 0x0 DUP1 REVERT JUMPDEST POP PUSH2 0xB4 PUSH1 0x4 DUP1 CALLDATASIZE SUB DUP2 ADD SWAP1 DUP1 DUP1 CALLDATALOAD SWAP1 PUSH1 0x20 ADD SWAP1 SWAP3 SWAP2 SWAP1 POP POP POP PUSH2 0xF3 JUMP JUMPDEST STOP JUMPDEST CALLVALUE DUP1 ISZERO PUSH2 0xC2 JUMPI PUSH1 0x0 DUP1 REVERT JUMPDEST POP PUSH2 0xCB PUSH2 0x105 JUMP JUMPDEST PUSH1 0x40 MLOAD DUP1 DUP3 DUP2 MSTORE PUSH1 0x20 ADD SWAP2 POP POP PUSH1 0x40 MLOAD DUP1 SWAP2 SUB SWAP1 RETURN JUMPDEST DUP1 PUSH1 0x0 DUP1 DUP3 DUP3 SLOAD SUB SWAP3 POP POP DUP2 SWAP1 SSTORE POP POP JUMP JUMPDEST DUP1 PUSH1 0x0 DUP1 DUP3 DUP3 SLOAD ADD SWAP3 POP POP DUP2 SWAP1 SSTORE POP POP JUMP JUMPDEST PUSH1 0x0 DUP1 SLOAD SWAP1 POP SWAP1 JUMP STOP LOG1 PUSH6 0x627A7A723058 KECCAK256 OR 0xb5 NUMBER 0x1f PUSH26 0xECA12949A812E2ABFF5C1405C42CF0798D461B6D67B19C834A7B 0x4d STOP 0x29 "
		},
		"gasEstimates": {
			"creation": {
				"codeDepositCost": "62800",
				"executionCost": "111",
				"totalCost": "62911"
			},
			"external": {
				"checkMoney()": "446",
				"depositMoney(uint256)": "20446",
				"withdrawMoney(uint256)": "20424"
			}
		},
		"methodIdentifiers": {
			"checkMoney()": "eff8a409",
			"depositMoney(uint256)": "ae18c52b",
			"withdrawMoney(uint256)": "54876921"
		}
	},
	"abi": [
		{
			"constant": false,
			"inputs": [
				{
					"name": "tempMoney",
					"type": "uint256"
				}
			],
			"name": "withdrawMoney",
			"outputs": [],
			"payable": false,
			"stateMutability": "nonpayable",
			"type": "function"
		},
		{
			"constant": false,
			"inputs": [
				{
					"name": "tempMoney",
					"type": "uint256"
				}
			],
			"name": "depositMoney",
			"outputs": [],
			"payable": false,
			"stateMutability": "nonpayable",
			"type": "function"
		},
		{
			"constant": true,
			"inputs": [],
			"name": "checkMoney",
			"outputs": [
				{
					"name": "tempMoney",
					"type": "uint256"
				}
			],
			"payable": false,
			"stateMutability": "view",
			"type": "function"
		}
	]
}