{
	"data": {
		"bytecode": {
			"linkReferences": {},
			"object": "608060405234801561001057600080fd5b50610113806100206000396000f3fe6080604052348015600f57600080fd5b5060043610603c5760003560e01c8063630f7035146041578063bd72e4fc14606a578063f1388f46146093575b600080fd5b6047609b565b60405180826006811115605657fe5b60ff16815260200191505060405180910390f35b607060b1565b60405180826006811115607f57fe5b60ff16815260200191505060405180910390f35b609960ba565b005b60008060019054906101000a900460ff16905090565b60006006905090565b60008060016101000a81548160ff0219169083600681111560d757fe5b021790555056fea265627a7a723158200fd357834418b898ccddf0507ed100d334e6a2fc7a2ef28d0160442385d94d4d64736f6c63430005110032",
			"opcodes": "PUSH1 0x80 PUSH1 0x40 MSTORE CALLVALUE DUP1 ISZERO PUSH2 0x10 JUMPI PUSH1 0x0 DUP1 REVERT JUMPDEST POP PUSH2 0x113 DUP1 PUSH2 0x20 PUSH1 0x0 CODECOPY PUSH1 0x0 RETURN INVALID PUSH1 0x80 PUSH1 0x40 MSTORE CALLVALUE DUP1 ISZERO PUSH1 0xF JUMPI PUSH1 0x0 DUP1 REVERT JUMPDEST POP PUSH1 0x4 CALLDATASIZE LT PUSH1 0x3C JUMPI PUSH1 0x0 CALLDATALOAD PUSH1 0xE0 SHR DUP1 PUSH4 0x630F7035 EQ PUSH1 0x41 JUMPI DUP1 PUSH4 0xBD72E4FC EQ PUSH1 0x6A JUMPI DUP1 PUSH4 0xF1388F46 EQ PUSH1 0x93 JUMPI JUMPDEST PUSH1 0x0 DUP1 REVERT JUMPDEST PUSH1 0x47 PUSH1 0x9B JUMP JUMPDEST PUSH1 0x40 MLOAD DUP1 DUP3 PUSH1 0x6 DUP2 GT ISZERO PUSH1 0x56 JUMPI INVALID JUMPDEST PUSH1 0xFF AND DUP2 MSTORE PUSH1 0x20 ADD SWAP2 POP POP PUSH1 0x40 MLOAD DUP1 SWAP2 SUB SWAP1 RETURN JUMPDEST PUSH1 0x70 PUSH1 0xB1 JUMP JUMPDEST PUSH1 0x40 MLOAD DUP1 DUP3 PUSH1 0x6 DUP2 GT ISZERO PUSH1 0x7F JUMPI INVALID JUMPDEST PUSH1 0xFF AND DUP2 MSTORE PUSH1 0x20 ADD SWAP2 POP POP PUSH1 0x40 MLOAD DUP1 SWAP2 SUB SWAP1 RETURN JUMPDEST PUSH1 0x99 PUSH1 0xBA JUMP JUMPDEST STOP JUMPDEST PUSH1 0x0 DUP1 PUSH1 0x1 SWAP1 SLOAD SWAP1 PUSH2 0x100 EXP SWAP1 DIV PUSH1 0xFF AND SWAP1 POP SWAP1 JUMP JUMPDEST PUSH1 0x0 PUSH1 0x6 SWAP1 POP SWAP1 JUMP JUMPDEST PUSH1 0x0 DUP1 PUSH1 0x1 PUSH2 0x100 EXP DUP2 SLOAD DUP2 PUSH1 0xFF MUL NOT AND SWAP1 DUP4 PUSH1 0x6 DUP2 GT ISZERO PUSH1 0xD7 JUMPI INVALID JUMPDEST MUL OR SWAP1 SSTORE POP JUMP INVALID LOG2 PUSH6 0x627A7A723158 KECCAK256 0xF 0xD3 JUMPI DUP4 DIFFICULTY XOR 0xB8 SWAP9 0xCC 0xDD CREATE POP PUSH31 0xD100D334E6A2FC7A2EF28D0160442385D94D4D64736F6C6343000511003200 "
		},
		"gasEstimates": {
			"creation": {
				"codeDepositCost": "55000",
				"executionCost": "105",
				"totalCost": "55105"
			},
			"external": {
				"get_choice()": "1109",
				"getdefaultvalue()": "245",
				"set_value()": "21103"
			}
		},
		"methodIdentifiers": {
			"get_choice()": "630f7035",
			"getdefaultvalue()": "bd72e4fc",
			"set_value()": "f1388f46"
		}
	},
	"abi": [
		{
			"constant": true,
			"inputs": [],
			"name": "get_choice",
			"outputs": [
				{
					"internalType": "enum Types.week_days",
					"name": "",
					"type": "uint8"
				}
			],
			"payable": false,
			"stateMutability": "view",
			"type": "function"
		},
		{
			"constant": true,
			"inputs": [],
			"name": "getdefaultvalue",
			"outputs": [
				{
					"internalType": "enum Types.week_days",
					"name": "",
					"type": "uint8"
				}
			],
			"payable": false,
			"stateMutability": "view",
			"type": "function"
		},
		{
			"constant": false,
			"inputs": [],
			"name": "set_value",
			"outputs": [],
			"payable": false,
			"stateMutability": "nonpayable",
			"type": "function"
		}
	]
}